{"abi":[{"type":"constructor","inputs":[],"stateMutability":"nonpayable"},{"type":"receive","stateMutability":"payable"},{"type":"function","name":"addDestinationChain","inputs":[{"name":"chainID","type":"uint32","internalType":"uint32"},{"name":"rpcURL","type":"string","internalType":"string"},{"name":"contractAddress","type":"address","internalType":"address"},{"name":"types","type":"uint8[]","internalType":"uint8[]"},{"name":"fees","type":"uint256[]","internalType":"uint256[]"}],"outputs":[],"stateMutability":"nonpayable"},{"type":"function","name":"addRelayerAddressToWhitelist","inputs":[{"name":"_address","type":"address","internalType":"address"}],"outputs":[],"stateMutability":"nonpayable"},{"type":"function","name":"getAllSupportedDestinationChains","inputs":[],"outputs":[{"name":"","type":"uint32[]","internalType":"uint32[]"}],"stateMutability":"view"},{"type":"function","name":"getAllWhitelistedRelayers","inputs":[],"outputs":[{"name":"","type":"address[]","internalType":"address[]"}],"stateMutability":"view"},{"type":"function","name":"getContractBalance","inputs":[],"outputs":[{"name":"","type":"uint256","internalType":"uint256"}],"stateMutability":"view"},{"type":"function","name":"getDestinationChainInfo","inputs":[{"name":"destionationChainId","type":"uint32","internalType":"uint32"}],"outputs":[{"name":"rpcURL","type":"string","internalType":"string"},{"name":"contractAddress","type":"address","internalType":"address"},{"name":"supportedTypes","type":"uint8[]","internalType":"uint8[]"}],"stateMutability":"view"},{"type":"function","name":"getLastProcessedMessageIdBySourceChain","inputs":[{"name":"sourceChainId","type":"uint32","internalType":"uint32"}],"outputs":[{"name":"","type":"uint32","internalType":"uint32"}],"stateMutability":"view"},{"type":"function","name":"getMessageIdByDestinationChain","inputs":[{"name":"destinationChainId","type":"uint32","internalType":"uint32"}],"outputs":[{"name":"","type":"uint32","internalType":"uint32"}],"stateMutability":"view"},{"type":"function","name":"getRequiredFeeForDestinationChain","inputs":[{"name":"destionationChainId","type":"uint32","internalType":"uint32"},{"name":"messageType","type":"uint8","internalType":"uint8"}],"outputs":[{"name":"","type":"uint256","internalType":"uint256"}],"stateMutability":"view"},{"type":"function","name":"owner","inputs":[],"outputs":[{"name":"","type":"address","internalType":"address"}],"stateMutability":"view"},{"type":"function","name":"receiveETHFromSourceChain","inputs":[{"name":"sourceChainId","type":"uint32","internalType":"uint32"},{"name":"sourceChainSender","type":"address","internalType":"address"},{"name":"recipient","type":"address","internalType":"address"},{"name":"sourceChainMessageId","type":"uint32","internalType":"uint32"},{"name":"amount","type":"uint256","internalType":"uint256"}],"outputs":[],"stateMutability":"nonpayable"},{"type":"function","name":"receiveETHfromSourceChainInBatch","inputs":[{"name":"sourceChainId","type":"uint32","internalType":"uint32"},{"name":"sourceChainFirstMessageId","type":"uint32","internalType":"uint32"},{"name":"recipients","type":"address[]","internalType":"address[]"},{"name":"amounts","type":"uint256[]","internalType":"uint256[]"}],"outputs":[],"stateMutability":"nonpayable"},{"type":"function","name":"receiveMessageFromSourceChain","inputs":[{"name":"sourceChainId","type":"uint32","internalType":"uint32"},{"name":"sourceChainSender","type":"address","internalType":"address"},{"name":"sourceChainMessageId","type":"uint32","internalType":"uint32"},{"name":"payload","type":"bytes","internalType":"bytes"}],"outputs":[],"stateMutability":"nonpayable"},{"type":"function","name":"relayerWhitelistMap","inputs":[{"name":"","type":"address","internalType":"address"}],"outputs":[{"name":"","type":"bool","internalType":"bool"}],"stateMutability":"view"},{"type":"function","name":"removeDestinationChain","inputs":[{"name":"chainID","type":"uint32","internalType":"uint32"}],"outputs":[],"stateMutability":"nonpayable"},{"type":"function","name":"removeRelayerAddressFromWhitelist","inputs":[{"name":"_address","type":"address","internalType":"address"}],"outputs":[],"stateMutability":"nonpayable"},{"type":"function","name":"sendETHToDestinationChain","inputs":[{"name":"chainID","type":"uint32","internalType":"uint32"},{"name":"recipient","type":"address","internalType":"address"}],"outputs":[],"stateMutability":"payable"},{"type":"function","name":"sendMessageToDestinationChain","inputs":[{"name":"chainID","type":"uint32","internalType":"uint32"},{"name":"messageType","type":"uint8","internalType":"uint8"},{"name":"payload","type":"bytes","internalType":"bytes"}],"outputs":[],"stateMutability":"payable"},{"type":"function","name":"supportedDestinationChains","inputs":[{"name":"","type":"uint32","internalType":"uint32"}],"outputs":[{"name":"rpcURL","type":"string","internalType":"string"},{"name":"contractAddress","type":"address","internalType":"address"}],"stateMutability":"view"},{"type":"function","name":"updateDestinationChain","inputs":[{"name":"chainID","type":"uint32","internalType":"uint32"},{"name":"rpcURL","type":"string","internalType":"string"},{"name":"contractAddress","type":"address","internalType":"address"},{"name":"types","type":"uint8[]","internalType":"uint8[]"},{"name":"fees","type":"uint256[]","internalType":"uint256[]"}],"outputs":[],"stateMutability":"nonpayable"},{"type":"function","name":"withdrawFunds","inputs":[],"outputs":[],"stateMutability":"nonpayable"},{"type":"event","name":"DestinationChainAdded","inputs":[{"name":"chainID","type":"uint32","indexed":true,"internalType":"uint32"},{"name":"rpcURL","type":"string","indexed":false,"internalType":"string"},{"name":"contractAddress","type":"address","indexed":false,"internalType":"address"},{"name":"messageTypes","type":"uint8[]","indexed":false,"internalType":"uint8[]"},{"name":"fees","type":"uint256[]","indexed":false,"internalType":"uint256[]"}],"anonymous":false},{"type":"event","name":"DestinationChainRemoved","inputs":[{"name":"chainID","type":"uint32","indexed":true,"internalType":"uint32"}],"anonymous":false},{"type":"event","name":"DestinationChainUpdated","inputs":[{"name":"chainID","type":"uint32","indexed":true,"internalType":"uint32"},{"name":"rpcURL","type":"string","indexed":false,"internalType":"string"},{"name":"contractAddress","type":"address","indexed":false,"internalType":"address"},{"name":"messageTypes","type":"uint8[]","indexed":false,"internalType":"uint8[]"},{"name":"fees","type":"uint256[]","indexed":false,"internalType":"uint256[]"}],"anonymous":false},{"type":"event","name":"ETHReceivedFromSourceChain","inputs":[{"name":"sourceChainId","type":"uint32","indexed":true,"internalType":"uint32"},{"name":"sourceChainSender","type":"address","indexed":true,"internalType":"address"},{"name":"recipient","type":"address","indexed":false,"internalType":"address"},{"name":"sourceChainMessageId","type":"uint32","indexed":true,"internalType":"uint32"},{"name":"amount","type":"uint256","indexed":false,"internalType":"uint256"}],"anonymous":false},{"type":"event","name":"ETHReceivedFromSourceChainInBatch","inputs":[{"name":"sourceChainId","type":"uint32","indexed":true,"internalType":"uint32"},{"name":"recipients","type":"address[]","indexed":false,"internalType":"address[]"},{"name":"amounts","type":"uint256[]","indexed":false,"internalType":"uint256[]"},{"name":"startMessageId","type":"uint32","indexed":false,"internalType":"uint32"},{"name":"endMessageId","type":"uint32","indexed":true,"internalType":"uint32"}],"anonymous":false},{"type":"event","name":"ETHSentToDestinationChain","inputs":[{"name":"chainID","type":"uint32","indexed":true,"internalType":"uint32"},{"name":"sender","type":"address","indexed":true,"internalType":"address"},{"name":"recipient","type":"address","indexed":false,"internalType":"address"},{"name":"messageId","type":"uint32","indexed":true,"internalType":"uint32"},{"name":"amount","type":"uint256","indexed":false,"internalType":"uint256"}],"anonymous":false},{"type":"event","name":"FundsWithdrawn","inputs":[{"name":"owner","type":"address","indexed":true,"internalType":"address"},{"name":"amount","type":"uint256","indexed":false,"internalType":"uint256"}],"anonymous":false},{"type":"event","name":"MessageReceived","inputs":[{"name":"sourceChainId","type":"uint32","indexed":true,"internalType":"uint32"},{"name":"sourceChainSender","type":"address","indexed":true,"internalType":"address"},{"name":"sourceChainMessageId","type":"uint32","indexed":true,"internalType":"uint32"},{"name":"payload","type":"bytes","indexed":false,"internalType":"bytes"}],"anonymous":false},{"type":"event","name":"MessageSent","inputs":[{"name":"chainID","type":"uint32","indexed":true,"internalType":"uint32"},{"name":"messageId","type":"uint32","indexed":true,"internalType":"uint32"},{"name":"sender","type":"address","indexed":true,"internalType":"address"},{"name":"messageType","type":"uint8","indexed":false,"internalType":"uint8"},{"name":"payload","type":"bytes","indexed":false,"internalType":"bytes"},{"name":"feePaid","type":"uint256","indexed":false,"internalType":"uint256"}],"anonymous":false},{"type":"event","name":"OwnershipTransferred","inputs":[{"name":"previousOwner","type":"address","indexed":true,"internalType":"address"},{"name":"newOwner","type":"address","indexed":true,"internalType":"address"}],"anonymous":false},{"type":"event","name":"RelayerAddressAddedToWhitelist","inputs":[{"name":"_address","type":"address","indexed":true,"internalType":"address"}],"anonymous":false},{"type":"event","name":"RelayerAddressRemovedFromWhitelist","inputs":[{"name":"_address","type":"address","indexed":true,"internalType":"address"}],"anonymous":false},{"type":"error","name":"ReentrancyGuardReentrantCall","inputs":[]}],"bytecode":{"object":"0x608060405234801561001057600080fd5b50600160008190555033600160006101000a81548173ffffffffffffffffffffffffffffffffffffffff021916908373ffffffffffffffffffffffffffffffffffffffff1602179055503373ffffffffffffffffffffffffffffffffffffffff16600073ffffffffffffffffffffffffffffffffffffffff167f8be0079c531659141344cd1fd0a4f28419497f9722a3daafe3b4186f6b6457e060405160405180910390a36148ed806100c46000396000f3fe60806040526004361061012e5760003560e01c80639b56a94f116100ab578063d11c172f1161006f578063d11c172f146103bc578063e6b02eb3146103e5578063ef61665014610422578063f3a25c281461044b578063f68b21e714610474578063f6d87352146104b157610135565b80639b56a94f146103075780639b78a58114610330578063b694e3721461034c578063bfe3f1be14610375578063c2bb45ef146103a057610135565b8063826546d8116100f2578063826546d8146101f9578063834a74241461022257806384109500146102605780638da5cb5b1461029f57806397883e36146102ca57610135565b806301c1c0ac1461013a5780631975bf951461016557806324600fc31461018e5780634adfc50e146101a55780636f9fb98a146101ce57610135565b3661013557005b600080fd5b34801561014657600080fd5b5061014f6104ee565b60405161015c9190612bf9565b60405180910390f35b34801561017157600080fd5b5061018c60048036038101906101879190612d26565b61057c565b005b34801561019a57600080fd5b506101a361096e565b005b3480156101b157600080fd5b506101cc60048036038101906101c79190612df9565b610b98565b005b3480156101da57600080fd5b506101e3610db6565b6040516101f09190612e3f565b60405180910390f35b34801561020557600080fd5b50610220600480360381019061021b9190612e86565b610dbe565b005b34801561022e57600080fd5b5061024960048036038101906102449190612f01565b61110c565b604051610257929190612fcd565b60405180910390f35b34801561026c57600080fd5b5061028760048036038101906102829190612f01565b6111d8565b604051610296939291906130c8565b60405180910390f35b3480156102ab57600080fd5b506102b46113f1565b6040516102c1919061310d565b60405180910390f35b3480156102d657600080fd5b506102f160048036038101906102ec9190612f01565b611417565b6040516102fe9190613137565b60405180910390f35b34801561031357600080fd5b5061032e600480360381019061032991906131a8565b611450565b005b61034a6004803603810190610345919061325c565b6115fc565b005b34801561035857600080fd5b50610373600480360381019061036e9190612df9565b611829565b005b34801561038157600080fd5b5061038a611b70565b604051610397919061338e565b60405180910390f35b6103ba60048036038101906103b591906133b0565b611bf4565b005b3480156103c857600080fd5b506103e360048036038101906103de91906136a6565b611e4c565b005b3480156103f157600080fd5b5061040c60048036038101906104079190612df9565b612179565b6040516104199190613790565b60405180910390f35b34801561042e57600080fd5b50610449600480360381019061044491906136a6565b612199565b005b34801561045757600080fd5b50610472600480360381019061046d9190612f01565b612478565b005b34801561048057600080fd5b5061049b600480360381019061049691906137ab565b6127a1565b6040516104a89190612e3f565b60405180910390f35b3480156104bd57600080fd5b506104d860048036038101906104d39190612f01565b612954565b6040516104e59190613137565b60405180910390f35b6060600380548060200260200160405190810160405280929190818152602001828054801561057257602002820191906000526020600020905b8160009054906101000a900473ffffffffffffffffffffffffffffffffffffffff1673ffffffffffffffffffffffffffffffffffffffff1681526020019060010190808311610528575b5050505050905090565b600260003373ffffffffffffffffffffffffffffffffffffffff1673ffffffffffffffffffffffffffffffffffffffff16815260200190815260200160002060009054906101000a900460ff16610608576040517f08c379a00000000000000000000000000000000000000000000000000000000081526004016105ff90613837565b60405180910390fd5b6000848490509050828290508114610655576040517f08c379a000000000000000000000000000000000000000000000000000000000815260040161064c906138a3565b60405180910390fd5b60008111610698576040517f08c379a000000000000000000000000000000000000000000000000000000000815260040161068f9061390f565b60405180910390fd5b600760008863ffffffff1663ffffffff16815260200190815260200160002060009054906101000a900463ffffffff1663ffffffff168663ffffffff1611610715576040517f08c379a000000000000000000000000000000000000000000000000000000000815260040161070c906139a1565b60405180910390fd5b60006001828861072591906139f0565b61072f9190613a28565b905060008047905060005b8481101561089357600087878381811061075757610756613a60565b5b905060200201359050600081116107a3576040517f08c379a000000000000000000000000000000000000000000000000000000000815260040161079a90613adb565b60405180910390fd5b80846107af9190613afb565b935060008a8a848181106107c6576107c5613a60565b5b90506020020160208101906107db9190612df9565b73ffffffffffffffffffffffffffffffffffffffff16826040516107fe90613b60565b60006040518083038185875af1925050503d806000811461083b576040519150601f19603f3d011682016040523d82523d6000602084013e610840565b606091505b5050905080610884576040517f08c379a000000000000000000000000000000000000000000000000000000000815260040161087b90613bc1565b60405180910390fd5b8280600101935050505061073a565b50808211156108d7576040517f08c379a00000000000000000000000000000000000000000000000000000000081526004016108ce90613c2d565b60405180910390fd5b82600760008c63ffffffff1663ffffffff16815260200190815260200160002060006101000a81548163ffffffff021916908363ffffffff1602179055508263ffffffff168a63ffffffff167f386178eca7291c3b0deb4eb14ba024a726e077c1449a4c2fb470efbb4585af5d8a8a8a8a8f60405161095a959493929190613d53565b60405180910390a350505050505050505050565b600160009054906101000a900473ffffffffffffffffffffffffffffffffffffffff1673ffffffffffffffffffffffffffffffffffffffff163373ffffffffffffffffffffffffffffffffffffffff16146109fe576040517f08c379a00000000000000000000000000000000000000000000000000000000081526004016109f590613e0e565b60405180910390fd5b610a0661298d565b600047905060008111610a4e576040517f08c379a0000000000000000000000000000000000000000000000000000000008152600401610a4590613e7a565b60405180910390fd5b6000600160009054906101000a900473ffffffffffffffffffffffffffffffffffffffff1673ffffffffffffffffffffffffffffffffffffffff1682604051610a9690613b60565b60006040518083038185875af1925050503d8060008114610ad3576040519150601f19603f3d011682016040523d82523d6000602084013e610ad8565b606091505b5050905080610b1c576040517f08c379a0000000000000000000000000000000000000000000000000000000008152600401610b1390613ee6565b60405180910390fd5b600160009054906101000a900473ffffffffffffffffffffffffffffffffffffffff1673ffffffffffffffffffffffffffffffffffffffff167feaff4b37086828766ad3268786972c0cd24259d4c87a80f9d3963a3c3d999b0d83604051610b849190612e3f565b60405180910390a25050610b966129d3565b565b600160009054906101000a900473ffffffffffffffffffffffffffffffffffffffff1673ffffffffffffffffffffffffffffffffffffffff163373ffffffffffffffffffffffffffffffffffffffff1614610c28576040517f08c379a0000000000000000000000000000000000000000000000000000000008152600401610c1f90613e0e565b60405180910390fd5b600260008273ffffffffffffffffffffffffffffffffffffffff1673ffffffffffffffffffffffffffffffffffffffff16815260200190815260200160002060009054906101000a900460ff1615610cb5576040517f08c379a0000000000000000000000000000000000000000000000000000000008152600401610cac90613f52565b60405180910390fd5b6001600260008373ffffffffffffffffffffffffffffffffffffffff1673ffffffffffffffffffffffffffffffffffffffff16815260200190815260200160002060006101000a81548160ff0219169083151502179055506003819080600181540180825580915050600190039060005260206000200160009091909190916101000a81548173ffffffffffffffffffffffffffffffffffffffff021916908373ffffffffffffffffffffffffffffffffffffffff1602179055508073ffffffffffffffffffffffffffffffffffffffff167fc6c5256c95c4f2d7b8d454e8702d3178aad319884db1d3420dc397f3fc6c660360405160405180910390a250565b600047905090565b600260003373ffffffffffffffffffffffffffffffffffffffff1673ffffffffffffffffffffffffffffffffffffffff16815260200190815260200160002060009054906101000a900460ff16610e4a576040517f08c379a0000000000000000000000000000000000000000000000000000000008152600401610e4190613837565b60405180910390fd5b600760008663ffffffff1663ffffffff16815260200190815260200160002060009054906101000a900463ffffffff1663ffffffff168263ffffffff1611610ec7576040517f08c379a0000000000000000000000000000000000000000000000000000000008152600401610ebe906139a1565b60405180910390fd5b47811115610f0a576040517f08c379a0000000000000000000000000000000000000000000000000000000008152600401610f0190613c2d565b60405180910390fd5b60008111610f4d576040517f08c379a0000000000000000000000000000000000000000000000000000000008152600401610f4490613adb565b60405180910390fd5b600073ffffffffffffffffffffffffffffffffffffffff168373ffffffffffffffffffffffffffffffffffffffff1603610fbc576040517f08c379a0000000000000000000000000000000000000000000000000000000008152600401610fb390613fbe565b60405180910390fd5b60008373ffffffffffffffffffffffffffffffffffffffff1682604051610fe290613b60565b60006040518083038185875af1925050503d806000811461101f576040519150601f19603f3d011682016040523d82523d6000602084013e611024565b606091505b5050905080611068576040517f08c379a000000000000000000000000000000000000000000000000000000000815260040161105f90613bc1565b60405180910390fd5b82600760008863ffffffff1663ffffffff16815260200190815260200160002060006101000a81548163ffffffff021916908363ffffffff1602179055508263ffffffff168573ffffffffffffffffffffffffffffffffffffffff168763ffffffff167f7ed4f0599d0ef09c92cf1f9fa39d512e3e3fc11d51278ed2ab2244a47eda44ee87866040516110fc929190613fde565b60405180910390a4505050505050565b600460205280600052604060002060009150905080600001805461112f90614036565b80601f016020809104026020016040519081016040528092919081815260200182805461115b90614036565b80156111a85780601f1061117d576101008083540402835291602001916111a8565b820191906000526020600020905b81548152906001019060200180831161118b57829003601f168201915b5050505050908060030160009054906101000a900473ffffffffffffffffffffffffffffffffffffffff16905082565b606060006060600073ffffffffffffffffffffffffffffffffffffffff16600460008663ffffffff1663ffffffff16815260200190815260200160002060030160009054906101000a900473ffffffffffffffffffffffffffffffffffffffff1673ffffffffffffffffffffffffffffffffffffffff160361128f576040517f08c379a0000000000000000000000000000000000000000000000000000000008152600401611286906140b3565b60405180910390fd5b6000600460008663ffffffff1663ffffffff1681526020019081526020016000209050806000018160030160009054906101000a900473ffffffffffffffffffffffffffffffffffffffff16826002018280546112eb90614036565b80601f016020809104026020016040519081016040528092919081815260200182805461131790614036565b80156113645780601f1061133957610100808354040283529160200191611364565b820191906000526020600020905b81548152906001019060200180831161134757829003601f168201915b50505050509250808054806020026020016040519081016040528092919081815260200182805480156113dc57602002820191906000526020600020906000905b82829054906101000a900460ff1660ff16815260200190600101906020826000010492830192600103820291508084116113a55790505b50505050509050935093509350509193909250565b600160009054906101000a900473ffffffffffffffffffffffffffffffffffffffff1681565b6000600660008363ffffffff1663ffffffff16815260200190815260200160002060009054906101000a900463ffffffff169050919050565b600260003373ffffffffffffffffffffffffffffffffffffffff1673ffffffffffffffffffffffffffffffffffffffff16815260200190815260200160002060009054906101000a900460ff166114dc576040517f08c379a00000000000000000000000000000000000000000000000000000000081526004016114d390613837565b60405180910390fd5b600760008663ffffffff1663ffffffff16815260200190815260200160002060009054906101000a900463ffffffff1663ffffffff168363ffffffff1611611559576040517f08c379a0000000000000000000000000000000000000000000000000000000008152600401611550906139a1565b60405180910390fd5b82600760008763ffffffff1663ffffffff16815260200190815260200160002060006101000a81548163ffffffff021916908363ffffffff1602179055508263ffffffff168473ffffffffffffffffffffffffffffffffffffffff168663ffffffff167fc6bc659007bda93c7e63e0c1f693eb7e935e64c009cd555cd95a3ba983f3aa0885856040516115ed929190614111565b60405180910390a45050505050565b600073ffffffffffffffffffffffffffffffffffffffff16600460008663ffffffff1663ffffffff16815260200190815260200160002060030160009054906101000a900473ffffffffffffffffffffffffffffffffffffffff1673ffffffffffffffffffffffffffffffffffffffff16036116ad576040517f08c379a00000000000000000000000000000000000000000000000000000000081526004016116a4906140b3565b60405180910390fd5b6000600460008663ffffffff1663ffffffff16815260200190815260200160002060010160008560ff1660ff16815260200190815260200160002054905080341461172d576040517f08c379a000000000000000000000000000000000000000000000000000000000815260040161172490614181565b60405180910390fd5b600660008663ffffffff1663ffffffff168152602001908152602001600020600081819054906101000a900463ffffffff168092919061176c906141a1565b91906101000a81548163ffffffff021916908363ffffffff160217905550506000600660008763ffffffff1663ffffffff16815260200190815260200160002060009054906101000a900463ffffffff1690503373ffffffffffffffffffffffffffffffffffffffff168163ffffffff168763ffffffff167f95daf10bb5224a25141c15df327ba5e60c7424b39e996d223deefc60400b01038888888860405161181994939291906141dc565b60405180910390a4505050505050565b600160009054906101000a900473ffffffffffffffffffffffffffffffffffffffff1673ffffffffffffffffffffffffffffffffffffffff163373ffffffffffffffffffffffffffffffffffffffff16146118b9576040517f08c379a00000000000000000000000000000000000000000000000000000000081526004016118b090613e0e565b60405180910390fd5b600260008273ffffffffffffffffffffffffffffffffffffffff1673ffffffffffffffffffffffffffffffffffffffff16815260200190815260200160002060009054906101000a900460ff16611945576040517f08c379a000000000000000000000000000000000000000000000000000000000815260040161193c90614268565b60405180910390fd5b6000600260008373ffffffffffffffffffffffffffffffffffffffff1673ffffffffffffffffffffffffffffffffffffffff16815260200190815260200160002060006101000a81548160ff02191690831515021790555060005b600380549050811015611b29578173ffffffffffffffffffffffffffffffffffffffff16600382815481106119d8576119d7613a60565b5b9060005260206000200160009054906101000a900473ffffffffffffffffffffffffffffffffffffffff1673ffffffffffffffffffffffffffffffffffffffff1603611b165760036001600380549050611a329190614288565b81548110611a4357611a42613a60565b5b9060005260206000200160009054906101000a900473ffffffffffffffffffffffffffffffffffffffff1660038281548110611a8257611a81613a60565b5b9060005260206000200160006101000a81548173ffffffffffffffffffffffffffffffffffffffff021916908373ffffffffffffffffffffffffffffffffffffffff1602179055506003805480611adc57611adb6142bc565b5b6001900381819060005260206000200160006101000a81549073ffffffffffffffffffffffffffffffffffffffff02191690559055611b29565b8080611b21906142eb565b9150506119a0565b508073ffffffffffffffffffffffffffffffffffffffff167f4389e6971bbb630726a8141da0d210c0880ece972639a84c6341c0f56a0007ef60405160405180910390a250565b60606005805480602002602001604051908101604052809291908181526020018280548015611bea57602002820191906000526020600020906000905b82829054906101000a900463ffffffff1663ffffffff1681526020019060040190602082600301049283019260010382029150808411611bad5790505b5050505050905090565b600073ffffffffffffffffffffffffffffffffffffffff16600460008463ffffffff1663ffffffff16815260200190815260200160002060030160009054906101000a900473ffffffffffffffffffffffffffffffffffffffff1673ffffffffffffffffffffffffffffffffffffffff1603611ca5576040517f08c379a0000000000000000000000000000000000000000000000000000000008152600401611c9c906140b3565b60405180910390fd5b60003411611ce8576040517f08c379a0000000000000000000000000000000000000000000000000000000008152600401611cdf90613adb565b60405180910390fd5b600073ffffffffffffffffffffffffffffffffffffffff168173ffffffffffffffffffffffffffffffffffffffff1603611d57576040517f08c379a0000000000000000000000000000000000000000000000000000000008152600401611d4e90613fbe565b60405180910390fd5b600660008363ffffffff1663ffffffff168152602001908152602001600020600081819054906101000a900463ffffffff1680929190611d96906141a1565b91906101000a81548163ffffffff021916908363ffffffff160217905550506000600660008463ffffffff1663ffffffff16815260200190815260200160002060009054906101000a900463ffffffff1690508063ffffffff163373ffffffffffffffffffffffffffffffffffffffff168463ffffffff167fb745ac50c00bb8d351f97acd773b4eb71d216686f409865d7e9b8069255574ea8534604051611e3f929190613fde565b60405180910390a4505050565b600160009054906101000a900473ffffffffffffffffffffffffffffffffffffffff1673ffffffffffffffffffffffffffffffffffffffff163373ffffffffffffffffffffffffffffffffffffffff1614611edc576040517f08c379a0000000000000000000000000000000000000000000000000000000008152600401611ed390613e0e565b60405180910390fd5b600073ffffffffffffffffffffffffffffffffffffffff16600460008763ffffffff1663ffffffff16815260200190815260200160002060030160009054906101000a900473ffffffffffffffffffffffffffffffffffffffff1673ffffffffffffffffffffffffffffffffffffffff1614611f8d576040517f08c379a0000000000000000000000000000000000000000000000000000000008152600401611f849061437f565b60405180910390fd5b8051825114611fd1576040517f08c379a0000000000000000000000000000000000000000000000000000000008152600401611fc890614411565b60405180910390fd5b6000600460008763ffffffff1663ffffffff16815260200190815260200160002090508481600001908161200591906145dd565b50838160030160006101000a81548173ffffffffffffffffffffffffffffffffffffffff021916908373ffffffffffffffffffffffffffffffffffffffff160217905550828160020190805190602001906120619291906129dd565b5060005b83518160ff1610156120de57828160ff168151811061208757612086613a60565b5b6020026020010151826001016000868460ff16815181106120ab576120aa613a60565b5b602002602001015160ff1660ff1681526020019081526020016000208190555080806120d6906146af565b915050612065565b5060058690806001815401808255809150506001900390600052602060002090600891828204019190066004029091909190916101000a81548163ffffffff021916908363ffffffff1602179055508563ffffffff167fbe8cb69945172b0768c5ffba7685b2639255985068a77c525e26379fa39be101868686866040516121699493929190614785565b60405180910390a2505050505050565b60026020528060005260406000206000915054906101000a900460ff1681565b600160009054906101000a900473ffffffffffffffffffffffffffffffffffffffff1673ffffffffffffffffffffffffffffffffffffffff163373ffffffffffffffffffffffffffffffffffffffff1614612229576040517f08c379a000000000000000000000000000000000000000000000000000000000815260040161222090613e0e565b60405180910390fd5b600073ffffffffffffffffffffffffffffffffffffffff16600460008763ffffffff1663ffffffff16815260200190815260200160002060030160009054906101000a900473ffffffffffffffffffffffffffffffffffffffff1673ffffffffffffffffffffffffffffffffffffffff16036122da576040517f08c379a00000000000000000000000000000000000000000000000000000000081526004016122d19061482b565b60405180910390fd5b805182511461231e576040517f08c379a000000000000000000000000000000000000000000000000000000000815260040161231590614411565b60405180910390fd5b6000600460008763ffffffff1663ffffffff16815260200190815260200160002090508481600001908161235291906145dd565b50838160030160006101000a81548173ffffffffffffffffffffffffffffffffffffffff021916908373ffffffffffffffffffffffffffffffffffffffff160217905550828160020190805190602001906123ae9291906129dd565b5060005b83518160ff16101561242b57828160ff16815181106123d4576123d3613a60565b5b6020026020010151826001016000868460ff16815181106123f8576123f7613a60565b5b602002602001015160ff1660ff168152602001908152602001600020819055508080612423906146af565b9150506123b2565b508563ffffffff167f37334754a160fdffd8b7e82ca0b821b1651f22289f8f25085ce427dc24cc7d0d868686866040516124689493929190614785565b60405180910390a2505050505050565b600160009054906101000a900473ffffffffffffffffffffffffffffffffffffffff1673ffffffffffffffffffffffffffffffffffffffff163373ffffffffffffffffffffffffffffffffffffffff1614612508576040517f08c379a00000000000000000000000000000000000000000000000000000000081526004016124ff90613e0e565b60405180910390fd5b600073ffffffffffffffffffffffffffffffffffffffff16600460008363ffffffff1663ffffffff16815260200190815260200160002060030160009054906101000a900473ffffffffffffffffffffffffffffffffffffffff1673ffffffffffffffffffffffffffffffffffffffff16036125b9576040517f08c379a00000000000000000000000000000000000000000000000000000000081526004016125b09061482b565b60405180910390fd5b600460008263ffffffff1663ffffffff168152602001908152602001600020600080820160006125e99190612a84565b6002820160006125f99190612ac4565b6003820160006101000a81549073ffffffffffffffffffffffffffffffffffffffff0219169055505060005b60058054905081101561276a578163ffffffff166005828154811061264d5761264c613a60565b5b90600052602060002090600891828204019190066004029054906101000a900463ffffffff1663ffffffff160361275757600560016005805490506126929190614288565b815481106126a3576126a2613a60565b5b90600052602060002090600891828204019190066004029054906101000a900463ffffffff16600582815481106126dd576126dc613a60565b5b90600052602060002090600891828204019190066004026101000a81548163ffffffff021916908363ffffffff1602179055506005805480612722576127216142bc565b5b60019003818190600052602060002090600891828204019190066004026101000a81549063ffffffff0219169055905561276a565b8080612762906142eb565b915050612625565b508063ffffffff167f05ef4c8c34480d748d763cb7e48f0d857221a3b85770029e07f77a0b6dae57d660405160405180910390a250565b60008073ffffffffffffffffffffffffffffffffffffffff16600460008563ffffffff1663ffffffff16815260200190815260200160002060030160009054906101000a900473ffffffffffffffffffffffffffffffffffffffff1673ffffffffffffffffffffffffffffffffffffffff1603612853576040517f08c379a000000000000000000000000000000000000000000000000000000000815260040161284a906140b3565b60405180910390fd5b6000600460008563ffffffff1663ffffffff16815260200190815260200160002090506000805b82600201805490508160ff1610156128ed578460ff16836002018260ff16815481106128a9576128a8613a60565b5b90600052602060002090602091828204019190069054906101000a900460ff1660ff16036128da57600191506128ed565b80806128e5906146af565b91505061287a565b508061292e576040517f08c379a000000000000000000000000000000000000000000000000000000000815260040161292590614897565b60405180910390fd5b8160010160008560ff1660ff168152602001908152602001600020549250505092915050565b6000600760008363ffffffff1663ffffffff16815260200190815260200160002060009054906101000a900463ffffffff169050919050565b6002600054036129c9576040517f3ee5aeb500000000000000000000000000000000000000000000000000000000815260040160405180910390fd5b6002600081905550565b6001600081905550565b82805482825590600052602060002090601f01602090048101928215612a735791602002820160005b83821115612a4457835183826101000a81548160ff021916908360ff1602179055509260200192600101602081600001049283019260010302612a06565b8015612a715782816101000a81549060ff0219169055600101602081600001049283019260010302612a44565b505b509050612a809190612aec565b5090565b508054612a9090614036565b6000825580601f10612aa25750612ac1565b601f016020900490600052602060002090810190612ac09190612aec565b5b50565b50805460008255601f016020900490600052602060002090810190612ae99190612aec565b50565b5b80821115612b05576000816000905550600101612aed565b5090565b600081519050919050565b600082825260208201905092915050565b6000819050602082019050919050565b600073ffffffffffffffffffffffffffffffffffffffff82169050919050565b6000612b6082612b35565b9050919050565b612b7081612b55565b82525050565b6000612b828383612b67565b60208301905092915050565b6000602082019050919050565b6000612ba682612b09565b612bb08185612b14565b9350612bbb83612b25565b8060005b83811015612bec578151612bd38882612b76565b9750612bde83612b8e565b925050600181019050612bbf565b5085935050505092915050565b60006020820190508181036000830152612c138184612b9b565b905092915050565b6000604051905090565b600080fd5b600080fd5b600063ffffffff82169050919050565b612c4881612c2f565b8114612c5357600080fd5b50565b600081359050612c6581612c3f565b92915050565b600080fd5b600080fd5b600080fd5b60008083601f840112612c9057612c8f612c6b565b5b8235905067ffffffffffffffff811115612cad57612cac612c70565b5b602083019150836020820283011115612cc957612cc8612c75565b5b9250929050565b60008083601f840112612ce657612ce5612c6b565b5b8235905067ffffffffffffffff811115612d0357612d02612c70565b5b602083019150836020820283011115612d1f57612d1e612c75565b5b9250929050565b60008060008060008060808789031215612d4357612d42612c25565b5b6000612d5189828a01612c56565b9650506020612d6289828a01612c56565b955050604087013567ffffffffffffffff811115612d8357612d82612c2a565b5b612d8f89828a01612c7a565b9450945050606087013567ffffffffffffffff811115612db257612db1612c2a565b5b612dbe89828a01612cd0565b92509250509295509295509295565b612dd681612b55565b8114612de157600080fd5b50565b600081359050612df381612dcd565b92915050565b600060208284031215612e0f57612e0e612c25565b5b6000612e1d84828501612de4565b91505092915050565b6000819050919050565b612e3981612e26565b82525050565b6000602082019050612e546000830184612e30565b92915050565b612e6381612e26565b8114612e6e57600080fd5b50565b600081359050612e8081612e5a565b92915050565b600080600080600060a08688031215612ea257612ea1612c25565b5b6000612eb088828901612c56565b9550506020612ec188828901612de4565b9450506040612ed288828901612de4565b9350506060612ee388828901612c56565b9250506080612ef488828901612e71565b9150509295509295909350565b600060208284031215612f1757612f16612c25565b5b6000612f2584828501612c56565b91505092915050565b600081519050919050565b600082825260208201905092915050565b60005b83811015612f68578082015181840152602081019050612f4d565b60008484015250505050565b6000601f19601f8301169050919050565b6000612f9082612f2e565b612f9a8185612f39565b9350612faa818560208601612f4a565b612fb381612f74565b840191505092915050565b612fc781612b55565b82525050565b60006040820190508181036000830152612fe78185612f85565b9050612ff66020830184612fbe565b9392505050565b600081519050919050565b600082825260208201905092915050565b6000819050602082019050919050565b600060ff82169050919050565b61303f81613029565b82525050565b60006130518383613036565b60208301905092915050565b6000602082019050919050565b600061307582612ffd565b61307f8185613008565b935061308a83613019565b8060005b838110156130bb5781516130a28882613045565b97506130ad8361305d565b92505060018101905061308e565b5085935050505092915050565b600060608201905081810360008301526130e28186612f85565b90506130f16020830185612fbe565b8181036040830152613103818461306a565b9050949350505050565b60006020820190506131226000830184612fbe565b92915050565b61313181612c2f565b82525050565b600060208201905061314c6000830184613128565b92915050565b60008083601f84011261316857613167612c6b565b5b8235905067ffffffffffffffff81111561318557613184612c70565b5b6020830191508360018202830111156131a1576131a0612c75565b5b9250929050565b6000806000806000608086880312156131c4576131c3612c25565b5b60006131d288828901612c56565b95505060206131e388828901612de4565b94505060406131f488828901612c56565b935050606086013567ffffffffffffffff81111561321557613214612c2a565b5b61322188828901613152565b92509250509295509295909350565b61323981613029565b811461324457600080fd5b50565b60008135905061325681613230565b92915050565b6000806000806060858703121561327657613275612c25565b5b600061328487828801612c56565b945050602061329587828801613247565b935050604085013567ffffffffffffffff8111156132b6576132b5612c2a565b5b6132c287828801613152565b925092505092959194509250565b600081519050919050565b600082825260208201905092915050565b6000819050602082019050919050565b61330581612c2f565b82525050565b600061331783836132fc565b60208301905092915050565b6000602082019050919050565b600061333b826132d0565b61334581856132db565b9350613350836132ec565b8060005b83811015613381578151613368888261330b565b975061337383613323565b925050600181019050613354565b5085935050505092915050565b600060208201905081810360008301526133a88184613330565b905092915050565b600080604083850312156133c7576133c6612c25565b5b60006133d585828601612c56565b92505060206133e685828601612de4565b9150509250929050565b600080fd5b7f4e487b7100000000000000000000000000000000000000000000000000000000600052604160045260246000fd5b61342d82612f74565b810181811067ffffffffffffffff8211171561344c5761344b6133f5565b5b80604052505050565b600061345f612c1b565b905061346b8282613424565b919050565b600067ffffffffffffffff82111561348b5761348a6133f5565b5b61349482612f74565b9050602081019050919050565b82818337600083830152505050565b60006134c36134be84613470565b613455565b9050828152602081018484840111156134df576134de6133f0565b5b6134ea8482856134a1565b509392505050565b600082601f83011261350757613506612c6b565b5b81356135178482602086016134b0565b91505092915050565b600067ffffffffffffffff82111561353b5761353a6133f5565b5b602082029050602081019050919050565b600061355f61355a84613520565b613455565b9050808382526020820190506020840283018581111561358257613581612c75565b5b835b818110156135ab57806135978882613247565b845260208401935050602081019050613584565b5050509392505050565b600082601f8301126135ca576135c9612c6b565b5b81356135da84826020860161354c565b91505092915050565b600067ffffffffffffffff8211156135fe576135fd6133f5565b5b602082029050602081019050919050565b600061362261361d846135e3565b613455565b9050808382526020820190506020840283018581111561364557613644612c75565b5b835b8181101561366e578061365a8882612e71565b845260208401935050602081019050613647565b5050509392505050565b600082601f83011261368d5761368c612c6b565b5b813561369d84826020860161360f565b91505092915050565b600080600080600060a086880312156136c2576136c1612c25565b5b60006136d088828901612c56565b955050602086013567ffffffffffffffff8111156136f1576136f0612c2a565b5b6136fd888289016134f2565b945050604061370e88828901612de4565b935050606086013567ffffffffffffffff81111561372f5761372e612c2a565b5b61373b888289016135b5565b925050608086013567ffffffffffffffff81111561375c5761375b612c2a565b5b61376888828901613678565b9150509295509295909350565b60008115159050919050565b61378a81613775565b82525050565b60006020820190506137a56000830184613781565b92915050565b600080604083850312156137c2576137c1612c25565b5b60006137d085828601612c56565b92505060206137e185828601613247565b9150509250929050565b7f41646472657373206973206e6f742077686974656c6973746564000000000000600082015250565b6000613821601a83612f39565b915061382c826137eb565b602082019050919050565b6000602082019050818103600083015261385081613814565b9050919050565b7f4d69736d61746368656420617272617973206c656e6774680000000000000000600082015250565b600061388d601883612f39565b915061389882613857565b602082019050919050565b600060208201905081810360008301526138bc81613880565b9050919050565b7f4e6f20726563697069656e74732070726f766964656400000000000000000000600082015250565b60006138f9601683612f39565b9150613904826138c3565b602082019050919050565b60006020820190508181036000830152613928816138ec565b9050919050565b7f4d65737361676520494420746f6f206f6c64206f7220616c726561647920707260008201527f6f63657373656400000000000000000000000000000000000000000000000000602082015250565b600061398b602783612f39565b91506139968261392f565b604082019050919050565b600060208201905081810360008301526139ba8161397e565b9050919050565b7f4e487b7100000000000000000000000000000000000000000000000000000000600052601160045260246000fd5b60006139fb82612c2f565b9150613a0683612c2f565b9250828201905063ffffffff811115613a2257613a216139c1565b5b92915050565b6000613a3382612c2f565b9150613a3e83612c2f565b9250828203905063ffffffff811115613a5a57613a596139c1565b5b92915050565b7f4e487b7100000000000000000000000000000000000000000000000000000000600052603260045260246000fd5b7f416d6f756e74206d7573742062652067726561746572207468616e207a65726f600082015250565b6000613ac5602083612f39565b9150613ad082613a8f565b602082019050919050565b60006020820190508181036000830152613af481613ab8565b9050919050565b6000613b0682612e26565b9150613b1183612e26565b9250828201905080821115613b2957613b286139c1565b5b92915050565b600081905092915050565b50565b6000613b4a600083613b2f565b9150613b5582613b3a565b600082019050919050565b6000613b6b82613b3d565b9150819050919050565b7f455448207472616e73666572206661696c656400000000000000000000000000600082015250565b6000613bab601383612f39565b9150613bb682613b75565b602082019050919050565b60006020820190508181036000830152613bda81613b9e565b9050919050565b7f496e73756666696369656e7420636f6e74726163742062616c616e6365000000600082015250565b6000613c17601d83612f39565b9150613c2282613be1565b602082019050919050565b60006020820190508181036000830152613c4681613c0a565b9050919050565b6000819050919050565b6000613c666020840184612de4565b905092915050565b6000602082019050919050565b6000613c878385612b14565b9350613c9282613c4d565b8060005b85811015613ccb57613ca88284613c57565b613cb28882612b76565b9750613cbd83613c6e565b925050600181019050613c96565b5085925050509392505050565b600082825260208201905092915050565b600080fd5b82818337505050565b6000613d038385613cd8565b93507f07ffffffffffffffffffffffffffffffffffffffffffffffffffffffffffffff831115613d3657613d35613ce9565b5b602083029250613d47838584613cee565b82840190509392505050565b60006060820190508181036000830152613d6e818789613c7b565b90508181036020830152613d83818587613cf7565b9050613d926040830184613128565b9695505050505050565b7f4f6e6c79206f776e65722063616e20706572666f726d2074686973206163746960008201527f6f6e000000000000000000000000000000000000000000000000000000000000602082015250565b6000613df8602283612f39565b9150613e0382613d9c565b604082019050919050565b60006020820190508181036000830152613e2781613deb565b9050919050565b7f4e6f2066756e647320746f207769746864726177000000000000000000000000600082015250565b6000613e64601483612f39565b9150613e6f82613e2e565b602082019050919050565b60006020820190508181036000830152613e9381613e57565b9050919050565b7f5472616e73666572206661696c65640000000000000000000000000000000000600082015250565b6000613ed0600f83612f39565b9150613edb82613e9a565b602082019050919050565b60006020820190508181036000830152613eff81613ec3565b9050919050565b7f4164647265737320697320616c72656164792077686974656c69737465640000600082015250565b6000613f3c601e83612f39565b9150613f4782613f06565b602082019050919050565b60006020820190508181036000830152613f6b81613f2f565b9050919050565b7f496e76616c696420726563697069656e74000000000000000000000000000000600082015250565b6000613fa8601183612f39565b9150613fb382613f72565b602082019050919050565b60006020820190508181036000830152613fd781613f9b565b9050919050565b6000604082019050613ff36000830185612fbe565b6140006020830184612e30565b9392505050565b7f4e487b7100000000000000000000000000000000000000000000000000000000600052602260045260246000fd5b6000600282049050600182168061404e57607f821691505b60208210810361406157614060614007565b5b50919050565b7f436861696e206e6f7420737570706f7274656400000000000000000000000000600082015250565b600061409d601383612f39565b91506140a882614067565b602082019050919050565b600060208201905081810360008301526140cc81614090565b9050919050565b600082825260208201905092915050565b60006140f083856140d3565b93506140fd8385846134a1565b61410683612f74565b840190509392505050565b6000602082019050818103600083015261412c8184866140e4565b90509392505050565b7f496e636f72726563742066656520616d6f756e74000000000000000000000000600082015250565b600061416b601483612f39565b915061417682614135565b602082019050919050565b6000602082019050818103600083015261419a8161415e565b9050919050565b60006141ac82612c2f565b915063ffffffff82036141c2576141c16139c1565b5b600182019050919050565b6141d681613029565b82525050565b60006060820190506141f160008301876141cd565b81810360208301526142048185876140e4565b90506142136040830184612e30565b95945050505050565b7f41646472657373206973206e6f7420696e207468652077686974656c69737400600082015250565b6000614252601f83612f39565b915061425d8261421c565b602082019050919050565b6000602082019050818103600083015261428181614245565b9050919050565b600061429382612e26565b915061429e83612e26565b92508282039050818111156142b6576142b56139c1565b5b92915050565b7f4e487b7100000000000000000000000000000000000000000000000000000000600052603160045260246000fd5b60006142f682612e26565b91507fffffffffffffffffffffffffffffffffffffffffffffffffffffffffffffffff8203614328576143276139c1565b5b600182019050919050565b7f436861696e20616c726561647920657869737473000000000000000000000000600082015250565b6000614369601483612f39565b915061437482614333565b602082019050919050565b600060208201905081810360008301526143988161435c565b9050919050565b7f4d69736d61746368206265747765656e20747970657320616e6420666565732060008201527f6c656e6774680000000000000000000000000000000000000000000000000000602082015250565b60006143fb602683612f39565b91506144068261439f565b604082019050919050565b6000602082019050818103600083015261442a816143ee565b9050919050565b60008190508160005260206000209050919050565b60006020601f8301049050919050565b600082821b905092915050565b6000600883026144937fffffffffffffffffffffffffffffffffffffffffffffffffffffffffffffffff82614456565b61449d8683614456565b95508019841693508086168417925050509392505050565b6000819050919050565b60006144da6144d56144d084612e26565b6144b5565b612e26565b9050919050565b6000819050919050565b6144f4836144bf565b614508614500826144e1565b848454614463565b825550505050565b600090565b61451d614510565b6145288184846144eb565b505050565b5b8181101561454c57614541600082614515565b60018101905061452e565b5050565b601f8211156145915761456281614431565b61456b84614446565b8101602085101561457a578190505b61458e61458685614446565b83018261452d565b50505b505050565b600082821c905092915050565b60006145b460001984600802614596565b1980831691505092915050565b60006145cd83836145a3565b9150826002028217905092915050565b6145e682612f2e565b67ffffffffffffffff8111156145ff576145fe6133f5565b5b6146098254614036565b614614828285614550565b600060209050601f8311600181146146475760008415614635578287015190505b61463f85826145c1565b8655506146a7565b601f19841661465586614431565b60005b8281101561467d57848901518255600182019150602085019450602081019050614658565b8683101561469a5784890151614696601f8916826145a3565b8355505b6001600288020188555050505b505050505050565b60006146ba82613029565b915060ff82036146cd576146cc6139c1565b5b600182019050919050565b600081519050919050565b6000819050602082019050919050565b6146fc81612e26565b82525050565b600061470e83836146f3565b60208301905092915050565b6000602082019050919050565b6000614732826146d8565b61473c8185613cd8565b9350614747836146e3565b8060005b8381101561477857815161475f8882614702565b975061476a8361471a565b92505060018101905061474b565b5085935050505092915050565b6000608082019050818103600083015261479f8187612f85565b90506147ae6020830186612fbe565b81810360408301526147c0818561306a565b905081810360608301526147d48184614727565b905095945050505050565b7f436861696e20646f6573206e6f74206578697374000000000000000000000000600082015250565b6000614815601483612f39565b9150614820826147df565b602082019050919050565b6000602082019050818103600083015261484481614808565b9050919050565b7f4d6573736167652074797065206e6f7420737570706f72746564000000000000600082015250565b6000614881601a83612f39565b915061488c8261484b565b602082019050919050565b600060208201905081810360008301526148b081614874565b905091905056fea264697066735822122084984c8648ac636b3d9a9cc29c85a70d2f007d4354f59bd443d9a0f1c59e2b6164736f6c63430008130033","linkReferences":{}},"methodIdentifiers":{"addDestinationChain(uint32,string,address,uint8[],uint256[])":"d11c172f","addRelayerAddressToWhitelist(address)":"4adfc50e","getAllSupportedDestinationChains()":"bfe3f1be","getAllWhitelistedRelayers()":"01c1c0ac","getContractBalance()":"6f9fb98a","getDestinationChainInfo(uint32)":"84109500","getLastProcessedMessageIdBySourceChain(uint32)":"f6d87352","getMessageIdByDestinationChain(uint32)":"97883e36","getRequiredFeeForDestinationChain(uint32,uint8)":"f68b21e7","owner()":"8da5cb5b","receiveETHFromSourceChain(uint32,address,address,uint32,uint256)":"826546d8","receiveETHfromSourceChainInBatch(uint32,uint32,address[],uint256[])":"1975bf95","receiveMessageFromSourceChain(uint32,address,uint32,bytes)":"9b56a94f","relayerWhitelistMap(address)":"e6b02eb3","removeDestinationChain(uint32)":"f3a25c28","removeRelayerAddressFromWhitelist(address)":"b694e372","sendETHToDestinationChain(uint32,address)":"c2bb45ef","sendMessageToDestinationChain(uint32,uint8,bytes)":"9b78a581","supportedDestinationChains(uint32)":"834a7424","updateDestinationChain(uint32,string,address,uint8[],uint256[])":"ef616650","withdrawFunds()":"24600fc3"},"id":0}